:020000022000DC
:1060000000000120D9A8020001A90200B16E02001F
:1060100005A9020007A9020009A90200000000006A
:106020000000000000000000000000000BA90200BA
:106030000DA90200000000000FA9020011A9020032
:106040003584020013A90200998402001D88020011
:106050003D87020013A9020079650200D184020085
:10606000ED870200FD87020013A9020013A90200B8
:1060700013A9020013A9020013A9020013A9020028
:1060800013A902005169020013A9020013A902001A
:10609000ED69020013A90200FD9A020013A9020093
:1060A00013A9020013A9020013A9020013A90200F8
:1060B000C586020013A902000000000000000000D5
:1060C00013A90200D5860200E586020013A902008A
:1060D00013A9020013A9020013A902000000000086
:1060E00000000000000000000000000000000000B0
:1060F00000000000000000000000000000000000A0
:10610000000000000000000000000000000000008F
:10611000000000000000000000000000000000007F
:10612000000000000000000000000000000000006F
:10613000000000000000000000000000000000005F
:10614000000000000000000000000000000000004F
:10615000000000000000000000000000000000003F
:10616000000000000000000000000000000000002F
:10617000000000000000000000000000000000001F
:10618000000000000000000000000000000000000F
:1061900000000000000000000000000000000000FF
:1061A00000000000000000000000000000000000EF
:1061B00000000000000000000000000000000000DF
:1061C00000000000000000000000000000000000CF
:1061D00000000000000000000000000000000000BF
:1061E00000000000000000000000000000000000AF
:1061F000000000000000000000000000000000009F
:1062000010B5054C237833B9044B13B10448AFF3F0
:1062100000800123237010BDD8A2002000000000E0
:10622000BC27030008B5034B1BB103490348AFF378
:10623000008008BD00000000DCA20020BC27030095
:10624000154B002B08BF134B9D46A3F5803A002148
:106250008B460F461348144A121A04F05BFC0F4B8E
:10626000002B00D098470E4B002B00D09847002001
:10627000002104000D000D48002802D00C4806F053
:1062800021FE04F057FB2000290000F013F804F071
:1062900041FB00BF000008000000012000000000DA
:1062A00000000000D8A2002030B50020C5CE0200BA
:1062B00095E002002DE9F04F2DED028B5F4889B08B
:1062C00004F072FC4FF40041002001F097FB18B17C
:1062D0005B4A202100F0E8FA01F0BEFA5948DFEDF0
:1062E0005A8A9FED5A8A04F05FFC1C22002101A803
:1062F00004F010FC564800F0C1F9564B002443F05E
:10630000010901A800F0EAF901A800F00EFA0DF168
:106310000301064601A800F02BFA8346B0B9B0EE9F
:10632000680A01A800F029FA8046B7EE000A01A821
:1063300000F0FDF982464FF47A40C847032CE0D8BC
:10634000DFE804F007102D5D0024DAE74FF00008C5
:10635000EBE726B1404804F027FC0124D1E700F028
:1063600026FACEE7002EEFD1BBF1000F0AD06FF076
:106370006301084600F01AFA384804F015FC354667
:106380000224BEE7BAF1000F04D0354804F00CFC3B
:106390000324B6E76421084600F008FAB1E7414655
:1063A000304804F001FC29462F4804F0FDFB394633
:1063B0002E4804F0F9FB002EC6D1B8F1000F07D02B
:1063C000142D07D1132F09DDBAF1000FC2D0DCE77D
:1063D000142D0ED001356FF06301DCE701379DF815
:1063E000033043B16FF03101322000F0DFF91425A2
:1063F00087E74746F3E732216FF03100F5E7002EDB
:10640000A2D1BBF1000FB2D1BAF1000FA2D001A806
:1064100000F0BDF9B7EE007A77EE407A30EE070A69
:1064200067EE887A20EE080AFDEEE77A17EE901AFA
:10643000FDEEC07A17EE900AAEE700BF460C0300EF
:10644000540C03005B0C0300CDCC4C3E00004842D2
:10645000B1670200400C03006D0C0300750C0300D3
:106460007C0C0300840C0300990C0300AD0C0300AA
:10647000024B01225A64D3F84405704700B0014032
:106480000A4B0322C3F808250422C3F81025D3F8C9
:10649000042342F48032C3F80423054A4FF000611C
:1064A00011600122DA601A60704700BF00B001403D
:1064B00000E100E010B5064B1C680123226903FAD5
:1064C00000F019B922EA0000206110BD1043FBE77B
:1064D000A8980020044B1A68012303FA00F01368FF
:1064E00003431360704700BFA8980020044B1A684C
:1064F000012303FA00F0136823EA000313607047D6
:10650000A8980020024B4FF4207043F00103184775
:10651000D00C030010B5144B144C18602160C0B2AD
:106520000121FFF7C7FF20780021FFF7C3FF236891
:106530000F4A1B0243F0011143F4003343F00103FF
:10654000C2F81015C2F81435D2F8043343F003032F
:10655000C2F80433FFF794FF064B402200201A6074
:1065600083F8060310BD00BF70B4002074B400208F
:106570000060004000E100E010B50F4B0F4C4022DE
:10658000C3F88020D4F8003133B10023C4F80031BF
:10659000FFF76EFF0A4B1860D4F8043133B10023C3
:1065A000C4F80431FFF764FF064B1860FFF7AAFF39
:1065B000014B40221A6010BD00E100E00060004085
:1065C00068B4002064B4002010B5174CFFF7A2FF98
:1065D0002078FFF78BFFFFF795FF2078FFF77AFF12
:1065E000FFF790FF2078FFF781FFFFF78BFF30BFA9
:1065F0000E4A0F4B10681B680E4A1B1A4FF4AA7004
:106600001360584309F0E8FD05A3D3E9002309F01E
:1066100087FF0AF033F9084B186000EE100A10BD2E
:106620000000000080843E4170B4002068B4002067
:1066300064B400206CB4002060B4002010B505499B
:1066400003F03CFF28B1044B04481B68BDE8104030
:10665000184710BDBC98002078B4002014A7002073
:1066600070470000014804F09FBA00BFD60C030039
:10667000014804F099BA00BFE30C030030B50546A9
:1066800085B00F480F4C04F08FFA0F4803F024FE3A
:106690000E4B1860204603F067FE0D4BCDE9024318
:1066A0000C4B01930C230121009300231A4608464A
:1066B00003F07EFE03F008FF074B1D6005B030BD00
:1066C000F30C0300C8980020AC9800207CB4002094
:1066D000BC98002014A7002078B4002038B500250D
:1066E0000446057004210320FFF76EFF04210320F8
:1066F00084ED010AFFF768FF0421032084ED020AFC
:10670000FFF762FF0421032084ED030AFFF75CFF1B
:10671000042184ED040A0320FFF756FF257684ED5B
:10672000050A6576A576E57638BD00787047D0ED28
:10673000027AF4EEC07AF1EE10FA17D5D0ED037AB2
:10674000F4EEC07AF1EE10FA10D5D0ED047AF4EE42
:10675000C07AF1EE10FA09D5D0ED057AF4EEC07AE0
:10676000F1EE10FA4CBF0120002070470020704766
:106770008069003018BF01207047D0ED017AF4EE37
:10678000C07AF1EE10FAACBF012000207047D0EDC6
:10679000037A90ED050A90ED027A30EE670AD0EDAB
:1067A000047A77EEC77A30EE670A70477047704711
:1067B00010B501460446194804F0F6F9184804F0EB
:1067C000F3F9184B2046196804F0CEFA20B91648A0
:1067D000BDE8104004F0E8B9144B2046196804F0F5
:1067E000C3FA08B91248F3E7124B2046196804F0BF
:1067F000BBFA08B91048EBE7104B2046196804F0C3
:10680000B3FA08B90E48E3E70E4B2046196804F0C6
:10681000ABFA08B90C48DBE70C48D9E7100D0300C8
:1068200026170300F4980020250D0300F09800209F
:10683000380D0300F89800204C0D0300FC98002050
:106840005C0D0300009900206D0D03007A0D03001C
:1068500082B001238DF807309DF80730114B186086
:10686000596044F2010188429A6012D044F2020158
:10687000884206D1DA60DA6812889A61DA6852686A
:10688000DA6172B69DF80730002BFBD162B602B018
:1068900070471A611A6992685A611A6912689A6196
:1068A0001A69ECE720A7002000B583B002900091A0
:1068B000019244F2010071466A4603F0A7FF03B05B
:1068C00000BD0000094A537891780133DBB2994248
:1068D00008BF0023117899421FBF03705078182316
:1068E00003FB002014BF04300020704740A70020A5
:1068F00073B5054602A8002400F8014D0E4600F0CD
:106900007FFA0DF10600FFF7DDFF90B106700A4B2C
:106910009DF8062045605A709DF8070000F0A0FA27
:1069200024B9064B4FF48012C3F80021204602B070
:1069300070BD0424F0E700BF40A7002000E100E0A4
:10694000024B4FF43C6043F001031847C00D0300B5
:10695000F8B51F491F4B0025C1F84051C1F84451FB
:10696000C1F84851C1F84C51C1F80051C1F8045167
:106970001B684BB3D1F8044517490968641A24F021
:106980007F442F461A68A24209D8A41A15441A7CDB
:10699000DE691AB11F74D3E905209047AEB90F4BD9
:1069A0000F4A197813788B4205D10133DBB2022BE1
:1069B00008BF0023137012780A4B43F822500A4B89
:1069C0004FF48012C3F80021F8BD3346DAE700BF68
:1069D0000010014060A800205CA8002058A80020FA
:1069E00059A8002050A8002000E100E02DE9F74F51
:1069F0009C4A9D49137809789C4D99423CD00133BB
:106A0000DBB2022B08BF0023137099491278994B0F
:106A10000F6853F822003B1823F07F4300220B60DD
:106A20002B6816461446944613B942B12B6006E013
:106A3000196881420ED902B12B60091A19604FF012
:106A400001082B68DFF834A200930027BEB9DFF8F5
:106A500034B260E0401A0C44D968C3F800C0D3F8DF
:106A60001CE031B13A1922F07F42C3E90121DE6115
:106A70001E4601227346D7E70026B046E1E73446BA
:106A8000F6697B4A63681268DFF8FCC1A068991A4E
:106A900021F07F41614500F2A5800144216001227F
:106AA00022742A680023C4E90133E361002A40F01C
:106AB000A2802C60CAE75A1C9BF80210D2B2914205
:106AC0008BF8002004BF00228BF80020182202FB64
:106AD00003B32A6819799C68022974D003297ED0EF
:106AE000012918D1217CB1B9DA6862601A69A26003
:106AF0005A69E2609B69A3615F4B1B78002BC0D091
:106B00006160BEE79C4200F090809946DB69002BF3
:106B1000F8D1002323749BF800309BF801209A429F
:106B2000C9D12B682FB9009A934202D1B8F1000F56
:106B300043D0002B41D0D3F800A0504D4C4BD5F89A
:106B400004751C68DFF844813E1B98F8003026F07D
:106B50007F4603369BB94FF48033C5F84433C5F8FC
:106B60000433474B4FF400324FF00109C3F8802142
:106B70001A60C5F80090FFF7E3FE88F80090B24570
:106B80002CBF5444A41924F07F44C5F84045D5F8DF
:106B90000435DB1B23F07F43E41B033324F07F44E5
:106BA000A3420AD9D5F80435C5F84035FFF7C8FE29
:106BB000334B4FF40032C3F800212F4B00221A70E0
:106BC00003B0BDE8F08F13469146A0E71174D26977
:106BD0000123002AFAD1002B9DD02A609BE70023D5
:106BE0001946F6E7D31A23F07F43834234BFC31A12
:106BF0000023236053E721681368994213D8591A78
:106C00001160E26155E7091AD8691A4638B103469E
:106C100018688842F7D3401A186018461346216056
:106C2000E061DC6112E71346F2E74C450DD1D36910
:106C30002B6053B90E4801920121CAF80810036075
:106C40000D4B1970FFF77CFE019AE1692368C9F8C2
:106C50001C1011B1086803440B602B689A4218BFDE
:106C6000012756E758A8002059A8002060A8002056
:106C70005CA8002050A800204CA800200010014073
:106C800000E100E040A70020FEFF7F004DA80020AB
:106C9000F8B5194E194D1A4F4FF40033C6F880302D
:106CA00001244FF48033C5F84833C5F808336C60CD
:106CB000FFF746FEAC6000243C60FFF741FE114B3D
:106CC0001C70114B0B221C809A70104B1C60104BD7
:106CD0001C70104B4FF480121C70E023C6F880210A
:106CE00086F814333260C5F8084586F81133D5F8B4
:106CF00004353B602046F8BD00E100E00010014093
:106D00005CA800204DA8002040A7002060A800201B
:106D100058A8002059A80020074B9B784BB132B1EE
:106D200028B10368187C20B959745A61704707204C
:106D300070470820704700BF40A700202DE9F743A7
:106D40001D4FBB7805460E4690469BB390B3042971
:106D50002ED9436973B3437C02A80024012B00F8A9
:106D6000014D0CBF8946A14600F04AF80DF106001E
:106D7000FFF7A8FDD0B101230370104B4560D3F895
:106D80000435C0E90498C0E902369DF806307B70EE
:106D90009DF8070000F064F824B9094B4FF4801205
:106DA000C3F80021204603B0BDE8F0830424EFE7D8
:106DB0000724F7E70824F5E740A70020001001406A
:106DC00000E100E0064A92783AB130B1426922B15E
:106DD000002202740221FFF78BBD0820704700BF1C
:106DE00040A70020EFF30583C3F308032BB9EFF3AB
:106DF0001480C04300F0010070470120704700007C
:106E000070B50446FFF7EEFF012803D01049432078
:106E100003F0F8F8EFF3108672B60E4A906801237B
:106E200098B993600C4B0D4DD3F880102940116038
:106E3000C3F88050D3F8841051604FF0FF32C3F88C
:106E40008420207006B962B670BD2370FAE700BFD7
:106E5000C60D030080B4002000E100E0FC06FFBD89
:106E600010B50446FFF7BEFF012803D009495120A1
:106E700003F0C8F8084B9A685AB154B9EFF310817F
:106E800072B6064A18681060586850609C6001B974
:106E900062B610BDC60D030080B4002000E100E022
:106EA000024B1B680021986803F092BE1C990020D9
:106EB0001EF0040F1CBFEFF309800AE0EFF3088017
:106EC0000549064A884201D8904202D88D464FF0C3
:106ED0000000034B184700000000012000E00020E4
:106EE000096F0200BFF34F8F0549064BCA6802F4D1
:106EF000E0621343CB60BFF34F8F00BFFDE700BFDD
:106F000000ED00E00400FA052DE9F347054600F026
:106F1000BBFF00F0CDFD0028FBD12F4B2F4C9F6A0B
:106F20002F4BE41AE408240444F00104002D4ED051
:106F3000AA692C49204600F03FFFEB680193AB683B
:106F400000932949D5E90023204600F055FFEB695D
:106F500000932649D5E90423204600F041FF1E4B4B
:106F6000DB6A980703D52249204600F021FFDFF8AD
:106F70009490DFF894A000264FF0010808FA06F379
:106F80003B4206D059F826201AB15146204600F05F
:106F900013FF01361A2EF1D1390605D50E4B1549CE
:106FA0005A6B204600F008FF3A0405D50A4B1249F7
:106FB0009A6B204600F000FF104B1B68DB0700D5E2
:106FC00000BE2846FFF78EFF02B0BDE8F0870C49EF
:106FD000204600F0EDFEC2E700ED00E0302803009F
:106FE000D02703001B0E0300300E0300650E0300C4
:106FF000C00E03000F0F03002F0F0300F0ED00E0A1
:107000008D0E03004C0F0300040F030050E8002F07
:107010000B4640E8003C9CF0000FF7D1104670474B
:1070200050E8003F43EA010240E8002C9CF0000FCA
:10703000F6D11046704750E8002F02EA010340E8FD
:10704000003C9CF0000FF6D11046704750E8003F1E
:1070500003EB010240E8002C9CF0000FF6D1104633
:10706000704750E8003FA3EB010240E8002C9CF081
:10707000000FF6D1104670470121FFF7D1BF002164
:10708000FFF7D9BF10B50446002834D003681BB9F8
:107090001A49FF2002F0B6FF636823B917494FF47D
:1070A000807002F0AFFFA36823B9144940F20110C9
:1070B00002F0A8FFE36823B910494FF4817002F091
:1070C000A1FF238A23B90D4940F2031002F09AFF71
:1070D000D4E9012321689B1ADBB20A60013BDBB2D1
:1070E000FF2B226802D10020107110BD1168481CCE
:1070F00010600B70F2E70E20F7E700BF7414030076
:1071000037B5054620B914494FF4927002F07AFF62
:1071100002A8002400F8014DFFF772FE2A68696892
:1071200013688B4210D9591E116013F8014C2A8A3A
:10713000EB6802FB04342A68AB6811685B1A1179AA
:10714000DBB2994238BF13719DF80700FFF788FE44
:10715000204603B030BD00BF7414030037B50C46A1
:10716000054620B9104940F2471002F04BFF24B900
:107170000D494FF4A47002F045FF02A8002300F867
:10718000013DFFF73DFE2A681368591C1160EA684B
:10719000A41A2A8AB4FBF2F41C709DF80700FFF7CA
:1071A0005FFE03B030BD00BF7414030038B5084C57
:1071B00004F108030546002818BF1C4623682BB1BC
:1071C0001A6822605B6828469847F7E738BD00BF19
:1071D0006CA8002020B9054B01225A70FFF7E6BFCA
:1071E000012802D1014A9070F8E7704764A8002096
:1071F00020B9034B01225A70FFF7D8BF704700BF78
:1072000064A8002038B50B4C237883B90A48636022
:10721000A3602361E36001F0C1F8054602F054FC6D
:1072200008B901F0D1F801232370284638BD85251F
:10723000FBE700BF64A80020D571020013B5154C10
:10724000237823B914494FF4857002F0DBFEE3681C
:1072500023B9114940F20B1002F0D4FE02A800231A
:1072600000F8013DFFF7CCFDE368013BE360E36814
:1072700053B902F029FC18B10749792002F0C2FE87
:1072800001F0C0F80023A3709DF80700FFF7E8FDA8
:1072900002B010BD64A80020C4140300012813B577
:1072A00009D003D303281BD002B010BD134B012219
:1072B000C3F88020F8E702A80023114C00F8013D34
:1072C000FFF79EFD23780BB9FFF79CFFE3689DF85D
:1072D00007000133E3600123A370FFF7C1FDE3E77B
:1072E000074B1B7823B9074940F2452002F08AFE7C
:1072F00001F06AF8FFF7A2FFD6E700BF00E100E067
:1073000064A80020C414030010B5044618B9064947
:10731000312002F077FEA2682AB1636921682069F2
:1073200098470023A36010BD191503000EB433B5B0
:10733000059D044618B91249422002F063FE6369B4
:107340001BB90F49432002F05DFE23681BB90C49AD
:10735000442002F057FE63681BB90949452002F03A
:1073600051FE3DB102AA06AB42F8043D2946204633
:1073700000F06EF802B0BDE8304003B0704700BFC7
:1073800019150300826830B40468551C8560A15447
:10739000D0E901329A4202D330BCFFF7B5BF30BC0E
:1073A000704700002DE9F84F9946DDE90A4317467A
:1073B000824688460A460126BA420FD24E4538BF59
:1073C0004E4613F0010B01D164B900240125B9F137
:1073D000010F1AD909F1FF397D43F8E7B2FBF7F243
:1073E0000136E9E79B070ED5B9F1000F0CBF302538
:1073F0002025A642EAD2013C29465046FFF7C2FFAB
:10740000002CF6D1E1E72025F3E7B8FBF5F39F4226
:10741000E2D9DFF83890B8FBF5F3504619F80310BD
:1074200005FB1388FFF7AEFFB5FBF7F5002DF2D192
:10743000BBF1000F02D00CB1A64201D3BDE8F88F1A
:1074400020215046013CFFF79DFFF4E75F15030044
:107450002DE9F74F0E469046054620B9AC494FF44A
:10746000A27002F0CFFD6B6923B9A9494FF4A37054
:1074700002F0C8FD2B6823B9A54940F2471002F07D
:10748000C1FD6B6823B9A2494FF4A47002F0BAFDA4
:10749000002E00F03A8116F8011B002958D025294A
:1074A00040F0D180002702E047F00107164632463F
:1074B00012F8013B2D2BF7D0302B04D02B2B05D10C
:1074C00047F00407F2E747F00207EFE700242A2B12
:1074D00006F101021BD1D8F80030191DC8F80010C0
:1074E0001B6816461C4433782E2B1CD101364FF0F6
:1074F000000A314611F8012BA2F13000092814D8F6
:107500000A2303FB0A23A3F1300A0E46F1E712F81F
:10751000013CA3F130010929E5D80A2101FB04341B
:10752000303C1646D3E74FF0000A324612F8011BF2
:1075300001F0FB0068281646F8D0692916D054D807
:10754000582970D00ED825297DD03378002BA2D1B0
:107550002B7B002B00F0D980284603B0BDE8F04F0C
:10756000FFF7D2BE632968D06429EED1D8F8002095
:10757000111DC8F80010D2F8009089EAE972A2EB58
:10758000E9724FF0010B092A61DCD34538BFD346BD
:107590002CB1B9F1000F01DB790700D5013CBA0726
:1075A00002D5BAF1000F04D0FB0702D4002C54D14D
:1075B0000024B9F1000F58DAC9F100092D2128463D
:1075C000FFF7E0FE07F00302022A05D1BAF1000F2F
:1075D00002D1002C4DD10024CDE9004753460A22A8
:1075E00049462846FFF7DEFEAFE7732954D016D888
:1075F0007029AAD1D8F800301A1DC8F8002030210F
:1076000028461C68FFF7BEFE78212846FFF7BAFE21
:1076100000220823CDE9003221461022E1E7752936
:107620002FD0782991D1D8F800100A1DC8F8002071
:10763000CDE90047534610222CE0D8F800301A1D3F
:10764000C8F8002019782846FFF79CFE7DE70A233A
:107650000BF1010B92FBF3F295E7A345A9D2202190
:107660002846013CFFF78EFEA0E77807AAD52B211C
:10767000A5E7A345B0D230212846013CFFF782FEA2
:10768000A7E7D8F80010CDE900470A1DC8F8002088
:1076900053460A220968A4E7D8F800301A1DC8F832
:1076A0000020F907D3F8009012D54F46A7EB090B3D
:1076B00017F8011B41B9A345BFF447AF2021284665
:1076C000013CFFF75FFEF6E72846FFF75BFEEDE7BC
:1076D000B9F1000F17D0484603F012FD0746BC422F
:1076E00000D954B909F1FF3919F8011F00293FF4F5
:1076F0002CAF2846FFF746FEF6E720212846013C3E
:10770000FFF740FEEBE74F46E9E703B0BDE8F08F37
:107710006F1503007047000007B5044B0093044A3F
:10772000402300F032F803B05DF804FB3577020027
:1077300079A800202DE9F84389461446B2B10F4BD1
:107740000F4E0325002743F00108224609EB0701ED
:10775000002001F093F90744241A48B933782BB17B
:107760004FF47A40C047013D02D13570BDE8F8833F
:1077700001233370002CE8D1F8E700BFD0150300D7
:1077800078A80020704701F0CBB9F0B595B01C4641
:10779000164608460D4600F042FD1A9B0D93CDE9B2
:1077A000086400242346082205A928460A948DF877
:1077B0002C400C9400F05CFD079B0293BDF8183040
:1077C000ADF80C30BDF81A30ADF80E309DF814301D
:1077D0008DF8114003F00302012A1DD1BDF81440B9
:1077E000059EC3F3C203C4F383148DF81030A200C6
:1077F00008230EA9284600F03BFDC6F3952608ABEA
:107800000093224602AB0EA9304600F0ADFB28469D
:1078100000F009FD15B0F0BD022AF8D1BDF8164000
:10782000C3F3C203A4098DF810300827082C26469C
:1078300028BF08263B4632460EA9284600F018FD10
:10784000A41B08AB02AA31460EA8374400F0F0FB97
:10785000002CEBD1DBE7000008B5FFF794FF042113
:10786000064800F0E7FA002803DA0549412002F053
:10787000C9FB044B01225A7108BD00BFD428030084
:10788000E415030004990020037813F0040216D0D5
:1078900003F00303012B03D0022B09D00120704712
:1078A0000A6800880232C0F3831002440A60F5E7D8
:1078B0000B684288023303EB92130B60EEE710462D
:1078C000704700002DE9F04F89B00646871C08A8D4
:1078D000484C009200230D4600F8113DFFF790FA46
:1078E00023682B60D4E901231344226801339B1AD7
:1078F00004F21C4804F5836B04F21449BB421AD30A
:10790000009A0023002A6DD0012262F3010343F0A4
:10791000040366F389132168A2689DF80F000A40EA
:1079200003320F4444F822302760FFF799FA012010
:1079300009B0BDE8F08F01214046FFF787FB5846AC
:10794000FFF79AFB0DF1200A4846FFF795FB6068A8
:107950004AF8100DA5682840033004EB800051461A
:10796000FFF792FF02460498002AF4D105EA0003CB
:1079700004EB8303811CDB6805930130054004EBB5
:10798000850503F00303012B0491ED6823D0022B3E
:1079900008D0194901924FF4BF7002F033FB019AED
:1079A000154607E0BDF816309B0903332D0C01EB9B
:1079B000930304934846FFF762FB08B1049B63609E
:1079C00029464046FFF742FBD4E9012313442268CD
:1079D00001339B1A92E7BDF81430C3F383132D0CC7
:1079E0000B44E6E7022262F3010343F0040366F36B
:1079F0009F5390E78CA90020531603000B4B0C48B3
:107A0000FF2210B59A600022C3F81824C3E90022AF
:107A1000C3F81424012283F8202400F0B9FB0446A3
:107A200010B9044800F050FC204610BD8CA900207D
:107A300060280300AC16030030B50A4C71B10A4A45
:107A40000A49121BD20800239A4201D1002030BDFE
:107A500031F82350854202D00133F5E7034654F84C
:107A60003300F4E7D027030060280300D8A20020E9
:107A7000094B013903EBC000032909D8DFE801F005
:107A80000A02040604207047007970474079704765
:107A90000020704702207047D0270300034BD3E932
:107AA0000030C31A58425841704700BF8CA90020CB
:107AB0002DE9F04387B0FFF7F1FF0646002840F0BC
:107AC000FC807F4DC5F81804BFF34F8F6868AC6821
:107AD00006AF47F8100D2040033005EB8000394613
:107AE000FFF7D2FE029B18B1D5F81824002A5FD008
:107AF00004EA0302991C013305EB8202234005EBE3
:107B00008303D268DB68049302F00303022B039221
:107B1000029162D1BDF80E306A484FEA9318B8F16D
:107B2000500FC14628BF4FF0500969F38F1309F178
:107B30000801ADF80E3000F043FB0746002800F0C6
:107B4000A78000F06CFB03A900230822384600F050
:107B500079FB029924EA01060136B600B14535D910
:107B60005FFA89F97EB3F6B2A9EB06092140033129
:107B70005FFA89F4B146544E05EB810108234A4669
:107B8000384600F05FFB36B109F108032246314662
:107B9000384600F057FB029B08F1030803EB9803FB
:107BA0000293D5F81834002B4BD1D5F810445BE084
:107BB0002A689A4204D86A60304607B0BDE8F0836C
:107BC00004EA030088E740493446D7E721400331FF
:107BD00008234A4605EB8101DAE7012B58D1BDF8AD
:107BE0000C303848C3F38311062928BF062161F3FE
:107BF000891302318900ADF80C3000F0E1FA074634
:107C0000002845D000F00BFB0023082203A93846CA
:107C100000F018FB0026BDF80C20C2F38312B31C41
:107C200096424FEA8303BCD202994A1C2140033199
:107C3000029205EB81010422384600F003FB013675
:107C4000E9E7384600F0EFFAFFF728FF80F001007F
:107C5000C6B2B1E7E3685B7923B1236839461B6894
:107C600020469847E3681C68002CF3D1384600F0A2
:107C7000DAFA06A800F8114DFFF7C2F8D5F8183463
:107C80000BB9029B6B609DF80700FFF7E9F8DBE793
:107C9000D5F8104454B90D4B0D480E49C01AC00810
:107CA000000440F0020000F083F8CDE7236820468E
:107CB0009B689847E3681C68ECE700267CE700BFF8
:107CC0008CA900206028030098A90020D027030079
:107CD00020280300B81603002DE9F74F2F4C8046EB
:107CE0000F46914601A9012218469B46D4F808A0E8
:107CF000FFF7E8FD00283DD0019D0026A91C5E4548
:107D000006EB010240D100212548FFF77FF980F3FF
:107D1000100B244B244A4FEA18499B1AB9EBD30F96
:107D200004D3224940F2A31002F06CF96B1C03EA61
:107D30000A0304EB830349EA0B42DA6005EA0A030B
:107D40000333012114F8232068F3C50204F823202B
:107D500034F8232066F3891224F8232054F82320D2
:107D600067F39F2244F8232061F301026FF382023C
:107D700004F8232094F820341BB1FFF799FE002863
:107D8000FBD103B0BDE8F08F0AEA020204EB8202E5
:107D900059F82630D3600136B1E700BF8CA9002026
:107DA000A8AD002060280300D0270300531603006D
:107DB00000231A46FFF790BF13B502AC012344F825
:107DC000042D2246FFF788FF02B010BD07B5CDE9AC
:107DD000002302236A46FFF77FFF03B05DF804FB30
:107DE0001FB5CDE90123069B039301AA0323FFF7E7
:107DF00073FF05B05DF804FB1FB5CDE90023069BBA
:107E00000293079B03936A460423FFF765FF05B0BF
:107E10005DF804FB7FB5CDE90123089B0393099B23
:107E200004930A9B059301AA0523FFF755FF07B0AA
:107E30005DF804FB30B5134AD2F810440023214604
:107E400051B9C4682371D2F810445CB9C2F8100467
:107E5000C2681160184630BDC9680D799D420AD0CC
:107E60000968EDE7E468C16824680C60D2F8102462
:107E7000D2681060EEE701330A2BE0D14FF0FF33F8
:107E8000E8E700BF8CA9002038B5094A0123D2F8E1
:107E9000104482F820341D4604B938BDE3685D7192
:107EA000236820465B689847E3681C68F4E700BFD6
:107EB0008CA9002010B5037A052B0C460FD0437A0D
:107EC00023B1084A08492046FFF730FA07492046FF
:107ED000FFF72CFA2046BDE81040FFF715BA002A3C
:107EE000F8D0F3E703170300220D03002517030062
:107EF00073B5C38804460D4633B1144A0092144941
:107F0000144A2846FFF712FA217A05291CD0637A11
:107F10004BB1A088FFF7ACFD0F4B104953F8202060
:107F20002846FFF703FA227A0D4BA08853F8226007
:107F30000021FFF781FD0B4903463246284602B077
:107F4000BDE87040FFF7F2B902B070BD031703003F
:107F50001017030008170300D0160300220D0300BA
:107F600034170300281703002DE9F04385B01F469E
:107F70000C9D002306460C46904695F80C902B73FA
:107F800029463846FFF7B4FFB8F1060F09D8DFE8F5
:107F900008F00412181F2833400031462846FFF726
:107FA000C5F9002229463846FFF784FF85F80C9072
:107FB00005B0BDE8F083226831462846FFF7B6F9E0
:107FC000EFE7D4E9002331462846FFF7AFF9E8E7A9
:107FD000A36800933146D4E900232846FFF7A6F9A9
:107FE000DFE7E3680193A36800933146D4E90023F7
:107FF0002846FFF79BF9D4E723690293E3680193CE
:10800000A36800933146D4E900232846FFF78EF990
:10801000C7E76369039323690293E3680193A36845
:1080200000933146D4E900232846FFF77FF9B8E7EB
:1080300008292DE9F84F80460E4617461C4635D8CC
:10804000002593F80C901D7319461046FFF750FF5A
:10805000DFF88CA0DFF88CB0AE4229D918F80520E3
:1080600059462046FFF762F90135082DF4D11A4927
:10807000DFF874B02046FFF759F94FF0000A564573
:1080800024D918F80A507E2D17D92E225946204699
:10809000FFF74CF90AF1010ABAF1080FEFD10122FA
:1080A00021463846FFF706FF84F80C90BDE8F88FAC
:1080B00051462046FFF73AF9D6E702F06DFC284416
:1080C000427812F0970FE0D02A46DFE703492046B6
:1080D000FFF72CF9DEE700BFFE160300FC160300D5
:1080E000FA160300F4160300001703002DE9F74FFA
:1080F00099469DF83030019388461746054618B9D1
:108100002249B62001F07EFFEA8895F805B00BFB06
:1081100002FBABF1040BCB4503D81C49C42001F092
:1081200071FF3E68B5F806A006EB09025A4509F151
:10813000040188BFABEB0906B1FBFAF43E600AFB11
:10814000141144B9AAEB0107B74228BF37462EB92C
:1081500003B0BDE8F08F2D68013CF2E7019A0431CD
:1081600008EB0403681872B101463A461846F61B3C
:1081700002F036FCB2453C442D6857464FF00001F2
:1081800028BF3746E3E73A461946F0E7931703005E
:10819000FEF778BFF8B546790146721E0546002302
:1081A00093422D6803D30024A64202D8F8BD0133C0
:1081B000F6E70F682846FEF7D1FF01343946F3E7AA
:1081C0002DE9F843CD1C068A0746FEF799FF043EC9
:1081D00035440446B5FBF6F5F0B14FF48073EDB2CB
:1081E0008380C680013D076081464FF00008A845A6
:1081F00012D23846FEF784FF064648B16379013350
:10820000637108F10108C9F8000007608146EEE7D4
:108210002046FFF7BFFF34462046BDE8F883012122
:108220000430FEF713BF10B5012104460430FEF7F9
:1082300018FF10F0FF0F04D12046BDE81040FFF7F3
:10824000A9BF10BD30B585B0144604AA002542F878
:10825000044D0095FFF74AFF039BA34203D0034957
:10826000F62001F0CFFE05B030BD00BF931703002C
:1082700030B585B0144604AA012542F8044D009596
:10828000FFF734FF039BA34204D003494FF48070EF
:1082900001F0B8FE05B030BD93170300064B10B5D2
:1082A00000241C70054B1C60BFF35F8F0449054818
:1082B00000F018F8204610BD50AE002054AE00204B
:1082C000E417030048AE00208268002393608268B0
:1082D0001361826853618268D360826853608268E8
:1082E0001360704738B50D46044618B90849502048
:1082F00001F088FE1DB90649512001F083FE25607A
:108300002B6863606A68934204BF0023636038BDD2
:10831000F917030010B5044618B90B49632001F0A2
:1083200071FE23681BB90849642001F06BFE636885
:1083300043B1226891680B4463605268934204BF62
:108340000023636010BD00BFF91703000D4930B56D
:10835000A1F594720225914201D800200EE08B1AFB
:10836000DB1093FBF5F302EBC30452F83330834286
:1083700005D802D204F10802EDE7606830BD21465D
:10838000E9E700BFA019030008B5FFF7DFFF024BC4
:10839000002808BF184608BD6218030010B504463F
:1083A00018B90749A02001F02DFE064B187920B915
:1083B00001221C601A71587110BD8520FCE700BFB6
:1083C0005A1D030058AE002008B50B4B1B791BB992
:1083D0000A49B92001F016FE094B1A68D2075FBF9F
:1083E000E02283F8002301221A604FF0804301222B
:1083F000C3F8182508BD00BF58AE00205A1D030061
:1084000000E100E008B5084B1B791BB90749F320D0
:1084100001F0F8FD064B01221A604FF08042D2F8BD
:108420001834DB03FBD408BD58AE00205A1D0300EE
:108430000C00004007B5154B1A687AB100221A608B
:108440001B680093009B4FF080430122C3F8082370
:108450000F4B587910B95A711B6898470D4B1A6821
:1084600082B100221A601B680193019B4FF0804388
:108470000222C3F80823064B1B68012003B05DF8F5
:1084800004EB184703B05DF804FB00BF0001004097
:1084900058AE00200401004010B5054C22681AB9FE
:1084A0000449512001F0AEFD2368BDE81040184793
:1084B00060AE0020B11D030000F1804000F5E040F7
:1084C000002382B0036003680193019B02B07047F0
:1084D000F0B5514B514C1B6885B0DBB14FF4827045
:1084E00094F82E20FFF7E8FF12B194F82F30A3B1D3
:1084F000636802932389ADF80C30E36800218DF89E
:108500000410002B44D12374236801A8984700234A
:1085100084F82F3094F82E3003B3414B1B68EBB135
:108520004FF48070FFF7C8FF94F82D20638B91B251
:108530008B4238D95B1A21899BB26383CB1A61685D
:1085400001EB4301374BC3F82C16C3F830264FF428
:108550008270FFF7B1FF344B01221A60334B1B6866
:108560005BB14FF48870FFF7A7FF002304A82374C2
:10857000022300F80C3D236898472D4B1B6813B36A
:108580004FF48A70FFF798FF0023237405B0F0BD05
:10859000208B608363602081E160002AB4D1214B8D
:1085A00001221A60B0E7D2D1E368012184F82F10CC
:1085B0003BB1002161831B49C1F82C36C1F830263C
:1085C000C5E76383C3E766694FF000470125002EC6
:1085D000DCD0B6FA86F227FA02F34632920026EA97
:1085E000030602F1804303F5E0431B68002BEED045
:1085F0001046FFF761FFA2F58C72D30882F00402E7
:10860000C2F380028DF808308DF804508DF80920EF
:10861000236801A89847DAE70471004068AE00209B
:108620000071004000700040047000401071004074
:10863000147100400023435082B043580193019BC2
:1086400002B0704770B5D0F8103105460C4653B1F2
:108650004FF48871FFF7EEFF63795A0703D523685B
:108660000BB101209847D5F814315BB14FF48A71F2
:108670002846FFF7DFFF63791B0703D523680BB19B
:1086800002209847D5F81C315BB128464FF48E7113
:10869000FFF7D0FF607910F0100002D1236803B11A
:1086A0009847D5F8043163B14FF482712846FFF73B
:1086B000C1FF0123237123681BB10320BDE8704073
:1086C000184770BD01490248FFF7BCBF98AE0020B3
:1086D00000C0014001490248FFF7B4BFA0AE00202E
:1086E0000010024001490248FFF7ACBFA8AE0020CD
:1086F0000020024002494FF4F37001F083BC00BF38
:108700005A1E03001F2810B5044601D9FFF7F2FFD7
:10871000012303FA04F44FF0A043C3F80C4510BD45
:108720001F2810B5044601D9FFF7E4FF012303FA1F
:1087300004F44FF0A043C3F8084510BD13B54FF043
:108740004023D3F818310BB3114B124C00221A609E
:108750001B680193019B236823B90F494FF42770CD
:1087600001F050FCE07FFF2803D0A37F5BB1FFF74F
:10877000C9FF002363772372D4E90031074802B0B0
:10878000BDE810401847FFF7CBFFF2E702B010BD7D
:1087900018410040B0AE00200E1E0300B8AE00200D
:1087A0002DE9F743002406460F4600F5A0754FF467
:1087B0008038A14604F150002B68800080B26BB174
:1087C000D6F8043308FA04F21A4207D0C5F800902C
:1087D0002B680193019BD7E9003198470134042CA1
:1087E00005F10405E6D103B0BDE8F0830149024874
:1087F000FFF7D6BFD4AE00200080004001490248F8
:10880000FFF7CEBFE0AE00200090004000234350B1
:1088100082B043580193019B02B07047F0B5504CB1
:10882000236887B023B94F4940F2452001F0EAFBA5
:108830004D4AD2F824311546A3B14FF49271104637
:10884000FFF7E4FFD2F8043163B9A368C2F8083334
:108850000223A360A368C2F80433012313625361A7
:1088600007B0F0BDD5F80431002B49D03F4F3E484A
:108870004FF48271FFF7CAFF0FCF01AE0FC63B68FE
:10888000336094F82E307BB1237B012B0CBFD5F8DD
:108890003C25D5F84C250292022B334B0CBFD3F864
:1088A0003C35D3F84C3503934FF4B0712E48FFF7A5
:1088B000ADFF4FF4AE712C48FFF7A8FF94F83030AD
:1088C00013B194F82E303BB1274B0022C3F800229D
:1088D000A260274AC3F80823234AD2F8C434C2F856
:1088E000C4349A0736D501238DF8003094F830301F
:1088F0000BB984F82F30D4E9003168469847AFE7C8
:108900004FF4A4711848FFF781FF237B83B9174FF9
:108910000FCF01AE0FC63B68336094F83030002BA8
:10892000DAD1C5F80032A360114BC5F80833D3E79C
:108930004FF40073C5F8003240F20223A36003F144
:10894000CE73C5F80833A368C5F804330123AB60C0
:108950002B6285E713F0040318BF0223C4E700BFAE
:10896000ECAE0020A81E030000300040F8AE00204E
:1089700002029C010369C1688B429DBF8268D218C4
:1089800002F1FF3203F1FF3394BF501A581A7047B7
:108990002DE9F041D0E902670446F61B4068964293
:1089A00088461546384405D902F01AF83D44E5607A
:1089B000BDE8F0813246AD1B02F012F82A4608EB02
:1089C0000601606802F00CF8F1E72DE9F843C5688C
:1089D0000646894617464FF000083469B368706848
:1089E000A54228BFE418013C621B5C1BBC4228BFA7
:1089F0003C46944228BF144649462844224601F08A
:108A0000EFFFB3682544AB4208BF00253F1BA044DD
:108A1000A144F560E1D14046BDE8F88310B5114CA2
:108A2000114AA2610223C4E90433104BE361A2643A
:108A30004FF400730E4A2362E264002310220D49B2
:108A4000A362E01D6362E362A3656365E36522657B
:108A500002F0F4FA0849204602F0F0FA2023A3714C
:108A600010BD00BF8CB40020041F030030AF0020F5
:108A700020AF00200D1F0300111F0300F8B5184C94
:108A8000182300FB033503FB00402544C46A012C76
:108A90000F46164611D003D3022C1BD000240AE047
:108AA0002846FFF767FF864205D8324639462846F2
:108AB000FFF76EFF34462046F8BD2846FFF75AFF01
:108AC0008642344628BF0446224639462846FFF7E8
:108AD0005FFFF0E72846BDE8F840FFF776BF00BF2C
:108AE0008CB4002073B50D4B1B7804460D4616461A
:108AF0000BB9FFF793FF02A8002300F8013DFEF732
:108B00007FF9324629462046FFF7B8FF04469DF814
:108B10000700FEF7A5F9204602B070BD8CB4002016
:108B2000FFF77CBF10B511461C461A460020FFF720
:108B3000D9FF204610BD6DDF704779DF70477DDFBC
:108B4000704764DF70472DE9F74F0C9CBDF834B0D7
:108B50002788002580468A4691462E46B8F8002090
:108B6000B2420BDC35B12288013AD21B92B2FF2A05
:108B700039D8DA55002003B0BDE8F08FD8F80420CA
:108B800052F82600019000220DF1030101A8FFF721
:108B9000D8FF0028EFD19DF803204A4521D1228833
:108BA000002D14BF0020022002EB090101445945A9
:108BB00019DC3DB9013292B2228003F802A022886A
:108BC0000132228022880DF103011A4401A8FFF727
:108BD000B8FF0028CFD121889DF803200A442280C5
:108BE00001250136BAE70C20C5E72DE9F341089CC1
:108BF000BDF824501746CDE9004502220646FFF78E
:108C0000A2FF48B9102239463046CDE9084502B0E6
:108C1000BDE8F041FFF797BF02B0BDE8F0812DE954
:108C2000F04F00231688138090F82D3085B007464A
:108C30000D46144653B3082E01D80C2026E102A895
:108C4000FFF779FF002840F0218113880822CA54D9
:108C5000238801339BB21B222380CA542088013011
:108C600080B2208006220DF10901284401F0B8FEEF
:108C700023889DF8082006339BB212F0FE0218BF2D
:108C800001222380EA54238801332380BB78FBB17F
:108C900023880433B342D0D802A8FFF74EFF002840
:108CA00040F0F48023880322EA54238801339BB2E6
:108CB00019222380EA542388BDF8082001339BB28F
:108CC000E9182380EA54120A4A7023880233238069
:108CD000FA789AB12388D91CB142AED80221E9545E
:108CE000238801339BB201212380E95423880B445C
:108CF0009BB22380EA5423880B4423807A68AAB16C
:108D00002388D91CB14298D8022192F90020E95455
:108D1000238801339BB20A212380E954238801333D
:108D20009BB22380EA542388013323803B89002BA4
:108D300040F0A0803B8A5BB1CDE900462B4607227C
:108D4000032107F11000FFF750FF002840F09E803C
:108D50003B8B5BB1CDE900462B461522142107F170
:108D60001800FFF742FF002840F090803A6A002A7E
:108D700040F08F80D7F82480B8F1000F30D0B8F8D9
:108D800004302188981C8A1C0244B2423FF655AF39
:108D9000FE283FF652AF03336B54238801339BB256
:108DA000FF222380EA54238801339BB22380B8F842
:108DB0000020EA54E918120A4A702088023080B272
:108DC0002080B8F804205AB1D8F8081000296AD0D9
:108DD000284401F005FE2388B8F8042013442380BA
:108DE00097F82C30002B40F09980387800284DD02F
:108DF0003B88012B57D021888A1CB2423FF61DAF19
:108E0000012805D17B7802330B449E42FFF415AF55
:108E1000023E761A04A9B6B221F8086DA818FFF729
:108E20008EFE98BB3978BDF80820022900F0BB807F
:108E30007B78934202D3B24240F2B380012940F0E2
:108E4000B4809BB29E42C0F0B080ADF808300821DB
:108E5000BDF80830FE2B3FF6F0AE22880133AB544C
:108E60002288013292B22280A9542288134423809E
:108E700000200BE0CDE900462B460622022107F137
:108E80000800FFF7B2FE00283FF454AF05B0BDE87C
:108E9000F08FB4F800C00CF10603B3423FF6CDAE3C
:108EA0001188052901D80720F0E76FF4486E01EB1F
:108EB0000E039BB24FF27D3E7345F4D95388052BC8
:108EC000F1D96FF44860181880B27045EBD94FF6AD
:108ED000FF70814203D0834201D09942E3D8052339
:108EE00005F80C30238801339BB212212380E9540A
:108EF000238801339BB223801188E954E818090ABA
:108F00004170238802339BB223805288EA54E918C7
:108F1000120A4A702388023323802BE7BB6A002B96
:108F2000C1D04FF000094FF00C0A4FF0160B97F824
:108F30002C305FFA89F293427FF657AFB96A0AFB89
:108F400002F201EB0208B8F80430981CFE283FF644
:108F500074AE208803332B54238801339BB22380C3
:108F600005F803B0238801339BB223808A5AEA5460
:108F7000E918120A4A702088023080B22080B8F8BE
:108F800004205AB1D8F8081000298CD0284401F0E8
:108F900027FD2388B8F804201344238009F1010930
:108FA000C5E7092154E7B242FBD9ADF808604EE7A6
:108FB00070B5C0B14AB116880024B44203D3051974
:108FC0006D789D4208D0A14201D800200BE0055DDC
:108FD00001352C44A4B2F0E7A142F6D9A31C1380BA
:108FE000005D013880B270BD37B502AC002324F8B3
:108FF000023D134622460546FFF7DAFF10B1BDF8E1
:109000000600284403B030BD72DF704773DF70473D
:1090100038B5012204460D46B0F83812D0F83402B3
:10902000FFF7E2FF00B1057004F13C0204F50D7199
:1090300004F15400BDE83840FFF7E6BF80F8301077
:109040007047F8B504460F46002975D0002873D044
:1090500091F87A301BB191F89830002B6ED1D7F887
:10906000A030042B6AD0D7F89C30042B66D04FF088
:10907000000C84F802C007F178060FCE251D0FC53D
:109080000FCE0FC596E8070085E8070084F830C0CA
:10909000D7F8A4306363D7F8A830A3634FF6FF7501
:1090A00004F50D73C4F84432A4F84852072261460F
:1090B00004F24A2001F02EFD23780BB984F85450B5
:1090C00094F8243004F15501C4F8341283B3EE232C
:1090D000A4F8383204F50E723846FFF7A0FD30BB15
:1090E00094F8243004F24311C4F83C1213B3EE2375
:1090F000A4F8403204F5107207F13C00FFF78FFD31
:10910000A8B9A269A4F8482001236269206484F800
:1091100050006264014684F8513084F83C3004F118
:109120003C0204F15400FFF76FFF00B92370F8BD53
:109130001F23CDE71F23DBE70E20F8E70720F6E724
:10914000F8B5077804460D46002F00F0058100F2BF
:109150004A26A17007220021304601F0DBFCE3889B
:1091600013B1A378012B04D0E3794BB1A378022B80
:1091700006D1636BA3B1012284F8512208209847DD
:10918000334604F5147113F8012F12B99942FAD13C
:1091900017466B1E032B53D8DFE803F0050B0F12A5
:1091A00084F85132ECE7A3791BB194F8243003B969
:1091B0005FB9E3790BB1002F44D1237A002B43D15F
:1091C000637A002B0CBF00250425636BA570002B70
:1091D0003CD0033D012D39D86279002A36D094F86D
:1091E0005222002A32D184F85422012284F85322D8
:1091F0000720984704F13C0518220021284601F079
:1092000089FCE36A94F824200121581E884288BF13
:109210000B4684F83C1084F8513032B1884296BF36
:10922000A36A84F8521084F85230A178002384F89D
:10923000503004291BD8DFE801F0770D22355900A2
:109240000025C2E70225C0E70325BEE7002384F816
:109250005332CFE7C4F84432C4E910630223012239
:1092600084F83C30802384F83120A4F84830A37877
:10927000002B5CD1636B002B6AD1002067E00223D6
:1092800084F8313062B1072384F83C302369A4F8B4
:1092900048300023C4F84432E36826646364E6E798
:1092A0000323F1E763696364A369A4F8483012B14A
:1092B000062384F83C306379B3B194F852329BB9F9
:1092C00094F8543283B1022384F8503004212046AC
:1092D000FFF79EFE0028CAD1052384F8313004F53B
:1092E0000D73C4F84432C2E70323F6E7E36963640D
:1092F000236AA4F8483012B1062384F83C3063791D
:1093000083B194F852326BB994F8543253B10223BA
:1093100084F8503004212046FFF77AFE0028A6D1B9
:109320000623DAE70423D8E784F831309FE72A469A
:10933000D4F8441204F15400FFF766FE38B994F8EB
:10934000301094F85400FFF761FE002892D0F8BD69
:1093500094F83100984790E70820F8E710B50388A3
:10936000112B0C460AD0262B1FD0102B05D1C37B06
:10937000012B02D18388A1F8483210BD002381F867
:1093800052328288B1F848329A42F6D10B79002BDA
:10939000F3D101212046FFF7D3FE0028EDD0A36BC7
:1093A000002BEAD0BDE810401847037A013B012B9F
:1093B000E3D889780523013191FBF3F303EB8303B1
:1093C000C91AC9B2E6E7704775DF704776DF7047A4
:1093D0007ADF70477BDF7047034B1A8882420CBFED
:1093E00018460020704700BF4CB10020024B9B691B
:1093F00003B11847704700BF30B1002037B585B2C0
:109400002846FFF7E9FF034670B1164C017A227B2C
:1094100091420BD200F10A012846FFF7D5FFE8B1CF
:10942000112801D0FFF7E2FF03B030BD237C0022FA
:10943000027243B13B212846FFF7C8FF30F0080312
:1094400001D0FFF7D3FF6369002BEDD000228DF828
:109450000420ADF8065001A89847E5E71A7A0132D2
:109460001A72E1E730B1002013B50B46497A0F4C70
:10947000024669B9D4E901101C7A002C18BF0146D4
:109480005868FDF75BFC08B1FFF7B0FF02B010BDF4
:10949000002119726369002BF8D00121ADF8060094
:1094A0008DF8041001A89847F0E700BF30B1002004
:1094B00030B583880588B3F5FA7F24BF6FF4F9725D
:1094C0009C184A8838BF002495420CD840889042A6
:1094D00009D38A88A24206D303F2F310904234BF24
:1094E0000020012030BD0020FCE7000070B503889B
:1094F000112B014648D002D8102B1ED070BD122B64
:1095000052D0502BFAD12F4BC288DB899A42F5D129
:10951000038A022BF2D186883046FFF75DFF0546AD
:109520000028EBD001F1120000F08AF830BB686827
:10953000FDF748FC0028E1D009E0C37B012BDDD119
:109540004FF6FF70FFF748FF054620B90420BDE83D
:109550007040FFF74BBF8E881B4A068000230372C2
:109560001368C5F80A300A30536843601031FFF7BA
:109570009FFF144B6872DB89002BBFD12946304610
:10958000BDE87040FFF770BF8088FFF725FF0446F5
:109590000028B3D04068FDF715FC08B1FFF726FF9F
:1095A0004FF6FF732380A9E786883046FFF714FF44
:1095B00005460028A2D008310A30FFF779FF68720B
:1095C000DCE700BF30B1002060B10020F8B50646EE
:1095D00050B305460FCD154F3C460FC495E8070024
:1095E00084E807003068124B3B60B8B1FFF7F0FE2B
:1095F000C8B931680A681A604A685A600D480E4A4C
:109600004FF6FF7303800D4B40F8043F0021FDF738
:1096100083FB002814BF0320002004E01846FFF756
:10962000D9FE0028EAD0F8BD0E20FCE730B10020BA
:1096300060B100204CB10020FD93020068B1002011
:10964000007800F00100704790DF7047A5DF704799
:10965000B5DF70477FB50023ADF80810ADF80A10EC
:109660006A4602A9064603930093ADF80430FFF75B
:10967000EBFF0546F8B1114B114CE41AE408FEF774
:1096800083FE240444F00104034632460D4920467B
:10969000FEF79CFBBDF80020BDF8023002B91BB1FB
:1096A00009492046FEF792FBBDF804201AB107498C
:1096B0002046FEF781FB284604B070BDD02703008A
:1096C00038280300181F0300621F0300A11F0300B6
:1096D00088B14FF0F7130360FB230371F723C380B6
:1096E0001723038141F6FB32002301618372C372A9
:1096F0008281184670470E207047000013B503465C
:1097000080880C46A0B91A88232A00F0AF8011D8AF
:10971000102A25D0112A54D0A37A4BB1E188002019
:10972000FFF794FF002840F0A7800123A072E372A6
:1097300002B010BD3A2A4ED0552A68D0242AEBD167
:109740001A7A0B694A73002BE6D04DF67A21ADF8F0
:109750000400ADF80010ADF802008DF8042081E09F
:109760000A790A73DB7B012B13D0022B14D0E1881A
:1097700023898B4205D20020FFF768FF70B90123CF
:10978000E372217B637B8B42C6D20020FFF762FF2E
:10979000C2E70B88E380EAE74B88FBE7112802D198
:1097A0000123A372EDE7FEF7EFFD3C4A3C4B3D4938
:1097B0009B1ADB081B04024643F00100FEF7FCFA8B
:1097C000DFE7F723CB8017230B8141F6FB33887249
:1097D000C8728B81A0E75B89CA88934228BF134671
:1097E000172B0A6938BF17230B8162B1C97A51B1AF
:1097F00040F67721ADF80010ADF80200ADF8043066
:109800006946204690470023E372A37284E7DB8811
:10981000C988A072172B38BF17238B4228BF0B466D
:109820002381FFF715FF60B1FEF7AEFD1B4A1C4B0D
:109830001D499B1ADB081B04024643F00100FEF79A
:10984000BBFAE27A002A7FF467AF2369002B3FF46A
:1098500063AF40F67721ADF802202289ADF8001001
:10986000ADF8042069462046984755E7197A237BCE
:10987000994228BF194689E711283FF459AFFEF7EE
:1098800083FD064A064B07499B1ADB081B04024668
:1098900043F00100FEF790FA4AE700BFD02703002B
:1098A00038280300F71F030028200300B0DF7047AB
:1098B00066DF704710B5034600214088FFF7F8FFC8
:1098C000024608B91A7210BD112801D10122F9E728
:1098D0005B68BDE81040184760B159B10378DE2BD2
:1098E0000AD00B684360DE2303704FF6FF7343809A
:1098F000002070470E2070470820704728B1037879
:10990000DE2B04D14180002070470E2070470820D4
:109910007047F0B5054685B00C46F1B1E8B10B785B
:10992000DE2B1AD182884B889A4204D10B7A13B16C
:109930000846FFF7BFFF2B88112B32D0512B0ED0DA
:10994000012B0AD12B7A012B07D1A9886288914279
:1099500003D123722046FFF7ADFF05B0F0BDAE88FE
:109960006388B342F9D1AF79022FF6D1AD7B2B1FBB
:10997000022BF2D800211022684601F0CBF8052D09
:1099800014BF4FF4C0730023694630468DF8007051
:10999000ADF80430FFF78AFF0028DED063689847EF
:1099A000DBE76388AA889A4204BF4FF6FF7363809F
:1099B000D3E710DF7047000013B504460949684635
:1099C000FEF790FC019808B902B010BDD0E9003153
:1099D0002046984718B16846FEF79CFCF2E7112034
:1099E000F2E700BF6820030013B504460749684644
:1099F000FEF778FC019B0BB902B010BD2046D3E9FD
:109A0000002190476846FEF785FCF3E780200300BD
:109A10000C4991F816335A09EC231341DB0706D59C
:109A2000094B9A684AB94FF480030B607047074AA4
:109A3000A12142F20200FCF737BF1A6842F480020B
:109A40001A60704700E100E080B400208C20030021
:109A5000F7B5184F3C785CBB174E01252046357092
:109A6000FFF7AAFF112820D02046FFF7BDFF134BB8
:109A70001868019002A800F8054DFDF7C1F91049DA
:109A800001A8FFF796FF0446B0FA80F0400938704D
:109A90009DF80300FDF7E4F93CB90A4B34701C70E3
:109AA000FFF7B6FF2846FFF79FFF204603B0F0BD43
:109AB0000824FAE789B1002088B10020642003005F
:109AC0000DA802008AB10020014B1878704700BF32
:109AD00089B1002007B508496846FEF703FC019BE1
:109AE00013B903B05DF804FBD3E900209047684642
:109AF000FEF710FCF3E700BF74200300FFF7EABF96
:109B000060DF704769DF704761DF704730B5134D24
:109B1000ADF5017D4FF4FA740DF1020103A8ADF823
:109B20000240FFF7F1FF70B9294601A8FEF7DAFB02
:109B3000029B002BF0D003A8D3E90021904701A895
:109B4000FEF7E8FBF4E7052804D0054A40F2391196
:109B5000FCF7AAFE0DF5017D30BD00BFA423030074
:109B600052230300024B1B780BB1FFF7CFBF7047A6
:109B70008BB1002030B5054685B00C46002900F0B9
:109B8000B6805C4B0B600C22002101A800F0C2FFE4
:109B900001238DF8063022688DF80450062301A9B0
:109BA0002020ADF80830FFF7ADFF60B1FEF7ECFB09
:109BB000514A524B52499B1ADB081B04024643F0A0
:109BC0000100FEF7F9F80C22002101A800F0A2FF25
:109BD00001238DF805302268002301A940208DF86B
:109BE00006308DF80730FFF78DFF60B1FEF7CCFB34
:109BF000414A424B43499B1ADB081B04024643F08F
:109C00000100FEF7D9F80C22002101A800F082FF24
:109C1000F72322688DF8045001A92320ADF80630FF
:109C2000FFF770FF60B1FEF7AFFB334A334B3649A5
:109C30009B1ADB081B04024643F00100FEF7BCF848
:109C40000C22002101A800F065FF0A2322688DF88C
:109C5000043001A90120FFF755FF60B1FEF794FB26
:109C6000254A264B29499B1ADB081B04024643F070
:109C70000100FEF7A1F80C22002101A800F04AFF24
:109C80004FF4B0632268019301A9A120FFF73AFFC6
:109C900060B1FEF779FB184A184B1D499B1ADB0887
:109CA0001B04024643F00100FEF786F80C22002157
:109CB00001A800F02FFF9DF8043022686FF3000325
:109CC00001A9A0208DF80430FFF71CFF68B1FEF752
:109CD0005BFB094A094B0F499B1ADB081B04024630
:109CE00043F00100FEF768F8002005B030BD0E20FB
:109CF000FBE700BFA8980020D027030050280300EE
:109D0000E22003002821030074210300BB2103008B
:109D10000722030058220300F8B506460768FFF73C
:109D2000EFFE3368BB4205461DD9194B194C1A4941
:109D3000E41AE408240444F002042046FEF738F84C
:109D4000336816493A462046FEF740F84FF08053F4
:109D50003268D3F80C3112499B0203F100539A1A6E
:109D60002046FEF729F825B90E4B01221A70284625
:109D7000F8BD2846FEF708FB054A064B0A499B1A20
:109D8000DB081B04024643F00100FEF715F8EEE77E
:109D9000D027030050280300AB220300DA2203007F
:109DA0000B2303008BB10020352303006CDF7047C9
:109DB00072DF704774DF704776DF704778DF704777
:109DC0007ADF70477CDF70477FDF704786DF704740
:109DD0008ADF70478FDF7047A8DF7047AADF7047C0
:109DE000B1DF704762DF704733DF704770470000B4
:109DF00037B503881D2B044600F0AC801DD8132B0B
:109E00007CD00AD8102B3DD0112B5DD0604B13B104
:109E10002046AFF3008003B030BD142B00F08C80DF
:109E20001B2BF3D1037A012BF0D1FFF7DDFF0028C4
:109E3000ECD0584A4FF4CC716DE0502B52D00ED874
:109E4000212B00F096803B2BE0D113218088FFF777
:109E5000B3FF0028DAD04F4A4FF4D0715BE0522BA9
:109E60005CD045D3562BD1D18379002BCED14A4B30
:109E700013211888FFF7A0FF0028C7D0454A40F2F9
:109E8000A71148E0444D818844482980FFF736FDFA
:109E900020B1404A4FF49D71FCF706FD00231A469D
:109EA00019462888FFF79CFF20B13A4A4FF4A17168
:109EB000FCF7FAFC3A4800F077FE3A4B002BA5D0AD
:109EC0002046FCF7CFFBA1E7334B37484FF6FF7234
:109ED0001A8000F069FE354B002B97D02046FCF726
:109EE000C7FB93E7324B002B90D0FCF7A7FB8DE725
:109EF000304B002B8AD0AFF3008087E72648002341
:109F00001A4685210088FFF75FFF00283FF47EAFE7
:109F1000204A40F28111FCF7C7FC77E71E48002376
:109F20001A4619460088FFF75BFF00283FF46EAF22
:109F3000184A40F28711EEE7174800231A461946DF
:109F40000088FFF743FF00283FF460AF114A40F25A
:109F50009111E0E7184B0BB1FCF782FB1749002089
:109F6000FFF736FF00283FF451AF0A4A40F2C7110D
:109F7000D1E702A9002321F8043D8088FFF72AFFDA
:109F800000283FF443AF034A40F2D111C3E700BFBA
:109F900000000000ED23030004B50020FCB3002006
:109FA0001C240300656602002C2403007166020075
:109FB0003D6602000000000061660200109900206A
:109FC00008B5024AB021FCF76FFC08BDED23030081
:109FD00008B503784BB9054B3B211888FFF7ECFE19
:109FE00018B1034ABA21FCF75FFC08BD04B5002094
:109FF000ED23030008B5024AAC21FCF755FC08BD6F
:10A00000ED23030038B50D460446044800F0CCFDAE
:10A010002A4621460248FCF747FC38BDC823030006
:10A02000EFBEADDE1FB51B4C00230293ADF8003030
:10A03000CDF80B3023681B788DF80230E5238DF8BE
:10A04000033098238DF804300622C02369460DF1B1
:10A0500009008DF8053000F0C3FC23685B884FF6DB
:10A06000FF7293420AD08DF8003006221B0A69461F
:10A070000DF109008DF8013000F0B2FC02A8FFF7E5
:10A0800095FE20B1044A40F22B21FCF70DFC04B0F0
:10A0900010BD00BF8CB10020ED23030013B5FFF706
:10A0A000D7FC20B10F4A40F23321FCF7FDFB02AC94
:10A0B000002344F8043D01202146FFF75BFD20B159
:10A0C000084A40F23921FCF7EFFB2046FFF724FE57
:10A0D00020B1044A40F26E21FCF7E6FBFFF7A2FF35
:10A0E00002B010BDED2303007FB51F4C04AD11235A
:10A0F00005F80C3D23685E68304601F001F83146F2
:10A1000082B22846FFF75EFE20B1184A4FF4207154
:10A11000FCF7CAFB4FF47070FFF750FE20B1134AF2
:10A120004FF42171FCF7C0FB08220DEB0200002167
:10A1300000F0F0FC23685A899B89ADF80A300C4B7B
:10A14000ADF808201B68ADF80C300A4B02A81B685C
:10A15000ADF80E30FFF734FE20B1044A40F28F21F3
:10A16000FCF7A2FB04B070BD8CB10020ED2303000E
:10A17000C4230300BC23030000B5ADB0AC22002112
:10A1800001A800F0C7FC022306228DF804308DF8E8
:10A1900007200123104A8DF80630ADF814300692DE
:10A1A0008DF880304FF4F07244F25063CDE92323F0
:10A1B00001A90A4B0A482A93FEF743FF20B1094A36
:10A1C00040F2B221FCF770FB01210548FEF736FF93
:10A1D0002DB05DF804FB00BF0C990020ED9D02003E
:10A1E00090B10020ED23030000B589B01C220021AE
:10A1F00001A800F08FFC0F4A00231268019302921D
:10A20000ADF812304FF470228DF814300A4B0392DF
:10A2100006930322094B8DF8102001A80793FFF73E
:10A22000D5F920B1064A4FF43271FCF73DFB09B075
:10A230005DF804FBC0230300D19F0200C19F020010
:10A24000ED23030007B502A9074B41F8043D074879
:10A25000FFF742FB20B1064A40F2D321FCF724FB72
:10A2600003B05DF804FB00BFF59F0200FCB30020C3
:10A27000ED23030008B5FCF70BFD20B1024A40F2C4
:10A280002531FCF711FB08BDED23030008B50321C0
:10A290000548FEF755FF30F0080304D0034A40F2AA
:10A2A0003231FCF701FB08BD90B10020ED23030023
:10A2B00008B5074B93F85400FFF77CFD30F0080316
:10A2C00004D0044A4FF44F71FCF7EEFA08BD00BF0A
:10A2D00090B10020ED23030008B51A4B1860FDF77C
:10A2E000DDFF20B1184A40F25E31FCF7DDFAFFF7DE
:10A2F000C1FFFFF7D3FE154800F056FCFFF7F4FE50
:10A30000134800F051FC00211248FFF7E1F920B199
:10A310000D4A40F29621FCF7C7FA0F4800F044FCC2
:10A32000FFF72AFF0D4800F03FFCFFF78BFF0C48BA
:10A3300000F03AFCFFF758FF0A484FF6FF7303801E
:10A3400008BD00BF8CB10020ED2303003E240300B4
:10A350004F240300E8B300205A24030066240300BE
:10A360007924030004B5002010B5038A044623B9FC
:10A37000427B037B43EA0223038204F1120120465D
:10A38000FFF730FD20B1094A40F28E31FCF78CFA1C
:10A3900004F1140204F110010120FFF71DFD20B1AA
:10A3A000024A40F29331FCF77FFA10BDED2303001F
:10A3B0002DE9F04F91B0DDE91C459946A37C8DF85D
:10A3C0000E3080460F462B88BDF86860ADF80C3023
:10A3D0000DF10E0120469246FFF704FD20B1364AEA
:10A3E00040F2A231FCF760FA1C22002109A800F01B
:10A3F00091FB9DF8243068F3410367F3C3036AF3CC
:10A4000004130DF1040B4FF0000A03225146584685
:10A410008DF82430CDF828A0CDE90CAACDE90EAAFC
:10A4200000F078FB41F21113ADF804309DF80630CE
:10A43000CDF838B001220DF1080B62F3420351460A
:10A44000032258468DF8063000F064FBB8F1000F87
:10A4500002D011238DF8083017B111238DF809307F
:10A460009DF80A30022262F3420303F0E70369F326
:10A4700000031422002104A88DF80A3000F04AFBE2
:10A4800003ABCDE9043B0023ADF81A301B9B0893C6
:10A4900004AAAB1C09A9A08AADF81860ADF81C602D
:10A4A000FFF79CFC20B1044A40F2CD31FCF7FCF9E7
:10A4B00011B0BDE8F08F00BFED230300C0884B88CA
:10A4C000C31A58425841704700B591B0FFF7F0FEEB
:10A4D0003C22002101A800F01DFB154A02238DF843
:10A4E0000430062302F155018DF807301F23C2F80E
:10A4F0003412A2F8383201A802F50E72FEF78FFB73
:10A5000020B10C4A40F2C441FCF7CEF90A4A02F5E8
:10A51000FC7102F11800FFF74BFC20B1054A4FF423
:10A520009961FCF7C1F9FFF7B1FE11B05DF804FBCA
:10A5300090B10020ED230300CCB100200C4B1B7820
:10A54000062B10D10B4B1B681A070CD10A4B18684D
:10A5500000F0F003302B08D000F0E000A0F1400341
:10A56000584258417047002070470120704700BF93
:10A57000E00F00F0E40F00F0E80F00F0094B1B784B
:10A58000062B0CD1084B1B681A0708D1074B18681B
:10A5900000F0F000A0F1300358425841704700200D
:10A5A000704700BFE00F00F0E40F00F0E80F00F08C
:10A5B00008B5FFF7C3FF28B17D4B7E4A1B68C3F384
:10A5C00004231360FFF7DAFF10B17B4B7B4A1A605C
:10A5D000FFF7B4FF28B17A4B7A4A1B68C3F34233C2
:10A5E0001360FFF7CBFF20B1774AD36823F0807365
:10A5F000D360FFF7A3FF40B14FF080430022C3F8C0
:10A600000C21C3F81021C3F83825FFF7B7FF10B1AC
:10A610006E4B03221A60FFF7B1FF40B16C4B05226D
:10A620001A6001229A6700229A603F225A60694BA1
:10A630001B78062B50D1684B1B6819074CD1674B10
:10A640001B6803F0F003502B46D14FF08052644B4F
:10A65000D2F80414C3F82015D2F80814C3F824154E
:10A66000D2F80C14C3F82815D2F81014C3F82C151E
:10A67000D2F81414C3F83015D2F81814C3F83415EE
:10A68000D2F81C14C3F84015D2F82014C3F84415AE
:10A69000D2F82414C3F84815D2F82814C3F84C157E
:10A6A000D2F82C14C3F85015D2F83014C3F854154E
:10A6B000D2F83414C3F86015D2F83814C3F864150E
:10A6C000D2F83C14C3F86815D2F84014C3F86C15DE
:10A6D000D2F84424C3F87025FFF730FF28B1414B6E
:10A6E000414A1B6803F04F031360FFF727FF48B18F
:10A6F0004FF08043D3F80024D20744BF6FF001022B
:10A70000C3F80024394B1B68062B08D1384B1B6853
:10A71000062B01BF374A136843F480631360364A3F
:10A72000D2F8883043F47003C2F88830BFF34F8FFB
:10A73000BFF36F8F4FF01023D3F80022002A03DB02
:10A74000D3F80432002B2FDA2C4B0122C3F8042556
:10A75000D3F80024002AFBD04FF010221521C2F8B4
:10A760000012D3F80024002AFBD04FF0102315224A
:10A77000C3F80422214B1A46D3F800140029FBD059
:10A780000021C3F80415D2F80034002BFBD0BFF32E
:10A790004F8F19491A4BCA6802F4E0621343CB6029
:10A7A000BFF34F8F00BFFDE7164B174A1A6008BD75
:10A7B000240300104035014074C007400DF0ADBACD
:10A7C000440200103C050040F0ED00E0A005004010
:10A7D00010560040E00F00F0E40F00F0E80F00F02A
:10A7E00000C0004058020010E40E0040300100108C
:10A7F000340100103C17004000ED00E000E0014093
:10A800000400FA05189900200090D0032DE9FF41BB
:10A8100006460F46154672B6FDF736FBFDF748F9BA
:10A820000028FBD1234B244CE41AE40841F2010335
:10A8300024049E4244F0010428D007D8012E14D0ED
:10A840003A461E492046FDF7B7FA12E044F20103EA
:10A850009E421DD044F202039E42F1D12B886A68C9
:10A8600017492046FDF7B2FA03E016492046FDF7E6
:10A870009FFA154B1B68DB0700D500BE2A463946F8
:10A88000304604B0BDE8F041FBF7E2BF0F49EDE709
:10A89000D5F808804046FDF777FD2B6802970193B5
:10A8A0006B6800930A49034642462046FDF7B2FA18
:10A8B0000849DBE7D0270300202803001C250300FC
:10A8C000C824030089240300F0ED00E0A62403005F
:10A8D000E2240300082503000649074A074B9B1A98
:10A8E00003DD043BC858D050FBDCFFF761FEFBF7EB
:10A8F000A7FC0000EC280300A8980020D8A20020A4
:10A90000FEE7FEE7FEE7FEE7FEE7FEE7FEE7FEE71F
:10A91000FEE7FEE708B50021044602F05FFA044BAB
:10A920001868C36B03B19847204605F011FB00BFC0
:10A930003425030070B50D4E0D4D761BB61006D0B4
:10A940000024013455F8043B9847A642F9D1094E3A
:10A95000094D761B06F062F9B61006D000240134CA
:10A9600055F8043B9847A642F9D170BDC8A2002013
:10A97000C8A20020D4A20020C8A20020044B054A8F
:10A980001B685B6B002B08BF134693F828017047C8
:10A990001C990020489D0020044B054A1B685B6BF6
:10A9A000002B08BF1346D3F8EC0070471C99002019
:10A9B000489D002082B049B15AB16BB113780B6049
:10A9C0001278101C18BF012002B0704701A9002A9C
:10A9D000F3D1104602B070476FF00100F4E700BFFA
:10A9E000844641EA000313F003036DD1403A41D39A
:10A9F00051F8043B40F8043B51F8043B40F8043B59
:10AA000051F8043B40F8043B51F8043B40F8043B48
:10AA100051F8043B40F8043B51F8043B40F8043B38
:10AA200051F8043B40F8043B51F8043B40F8043B28
:10AA300051F8043B40F8043B51F8043B40F8043B18
:10AA400051F8043B40F8043B51F8043B40F8043B08
:10AA500051F8043B40F8043B51F8043B40F8043BF8
:10AA600051F8043B40F8043B51F8043B40F8043BE8
:10AA7000403ABDD2303211D351F8043B40F8043B88
:10AA800051F8043B40F8043B51F8043B40F8043BC8
:10AA900051F8043B40F8043B103AEDD20C3205D398
:10AAA00051F8043B40F8043B043AF9D2043208D090
:10AAB000D2071CBF11F8013B00F8013B01D30B8802
:10AAC00003806046704700BF082A13D38B078DD0E0
:10AAD00010F003038AD0C3F10403D21ADB071CBFB2
:10AAE00011F8013B00F8013B80D331F8023B20F81C
:10AAF000023B7BE7043AD9D3013A11F8013B00F855
:10AB0000013BF9D20B7803704B7843708B788370DC
:10AB100060467047F0B4860743D0541E002A3ED0EA
:10AB2000CAB2034602E014F1FF3438D303F8012B14
:10AB30009D07F8D1032C2BD9CDB245EA05250F2C62
:10AB400045EA054516D9A4F110073F0903F120068F
:10AB500006EB071603F1100242E9045542E90255DB
:10AB60001032B242F8D104F00F040137032C03EB8A
:10AB700007130DD91E462246043A032A46F8045B01
:10AB8000FAD8221F22F003020432134404F0030413
:10AB90002CB1C9B21C4403F8011B9C42FBD1F0BC90
:10ABA000704714460346C5E70FB400B5074983B0A4
:10ABB00004AB086853F8042B8168019300F010FB84
:10ABC00003B05DF804EB04B0704700BF1C9900208F
:10ABD00000290CBF022200224FF4806300F000B86D
:10ABE0002DE9F0435D4C256883B00446884616463F
:10ABF0001F4615B1AB6B002B7ED0022E05D0012E67
:10AC000000F2A980002FC0F2A680636EDA0735D566
:10AC10002146284603F0AAF9216B41B104F1400313
:10AC2000994202D0284603F09FFA00232363B4F927
:10AC30000C3000221806A261626061D423F44A63DA
:10AC400023F00303022EA3811FD10025616E002093
:10AC500004F1430243F00203A060C9074FF0010072
:10AC6000A3812260C4E9042004D49B0502D4A06D12
:10AC700003F0ACFB284603B0BDE8F083A3899B0535
:10AC8000C6D4A06D03F0A0FBC2E701AB6A46214623
:10AC9000284603F09DFBA3891843A081002F36D1DD
:10ACA000009F384603F00CFC8046002842D0A38960
:10ACB00043F08003A381AB6B7BB3009AB4F90C30F3
:10ACC000C4F80080BA421CBF43F40063A381012E84
:10ACD00004BF43F00103A3819BB213F00802C4E94F
:10ACE00004871ED1A260656E15F00105BDD0002558
:10ACF000284603B0BDE8F083284603F093F97CE7CB
:10AD00002169284603F030FAB4F90C3096E7B8F11F
:10AD1000000FC6D0AB6B002BCFD1284603F082F9D1
:10AD2000CBE7DA0704D57F420022A761A260DAE709
:10AD3000A760D8E7DDF80090B94504D1B4F90C302C
:10AD40004FF0FF3582E7484603F0BAFB8046002803
:10AD5000F4D04F46ABE74FF0FF358BE71C9900204E
:10AD6000A2EB0300704700BF02780B78012A28BFCE
:10AD70009A42F5D16DE9044540EA0104CDE9026744
:10AD80006FF0000C4FEA447212B380EA010414F031
:10AD9000070F6AD100F0070420F0070004F0030554
:10ADA00021F007014FEAC505F0E8042314F0040F71
:10ADB000F1E804670CFA05F462EA040266EA0406A4
:10ADC0000AD063EA0403624667EA0407664603E0C2
:10ADD000F0E80423F1E8046782FA4CF582EA0604FD
:10ADE000A4FA8CF46CBB83FA4CF583EA0705A5FA48
:10ADF0008CF595B950E9022351E9026782FA4CF5C6
:10AE000082EA0604A4FA8CF483FA4CF583EA070577
:10AE1000A5FA8CF52543DBD09CB92DBAB5FA85F49B
:10AE200024F0070427FA04F1DDE9026723FA04F3AA
:10AE300003F0FF0001F0FF01FDE80445A0EB010075
:10AE4000704724BAB4FA84F424F0070426FA04F113
:10AE5000DDE9026722FA04F202F0FF0001F0FF01CF
:10AE6000FDE80445A0EB0100704714F0030F3CD14E
:10AE700010F0030428D150F8082B51F8083B82FA4F
:10AE80004CF582EA0305A5FA8CF55DB950F8042C5F
:10AE900051F8043C82FA4CF582EA0305A5FA8CF5D8
:10AEA000002DE8D02DBAB5FA85F424F0070423FA72
:10AEB00004F122FA04F202F0FF0001F0FF01FDE8C4
:10AEC0000445A0EB010070474FEAC40420F00300E2
:10AED00050F8082B21F0030151F8083B0CFA04F458
:10AEE00062EA040263EA0403C9E710F003041AD01B
:10AEF000A1EB040120F00300E40750F8042B06D076
:10AF00000FD28B785FFAA2F4E41A06D12BB1CB787A
:10AF10005FFAB2F4E41A00D11BB920465DF8104B79
:10AF2000704701F1040150F8042BCC0721F0030114
:10AF300051F8043B48D824D222F07F4482FA4CF5E1
:10AF400094EA1325A5FA8CF50AD165B951F8043BAA
:10AF500084EA0204B4EB036F0ED150F8042BEBE744
:10AF60004FEA132355E035F07F454DD10878FDE8D1
:10AF70000445C0F1000070474FEA126203F0FF037E
:10AF800047E002EA1C4482FA4CF594EA1345A5FA1C
:10AF90008CF50AD165B951F8043B84EA0204B4EB9C
:10AFA000034F0CD150F8042BEBE74FEA134330E08A
:10AFB00015EA1C4528D10B884FEA124229E04FEAD6
:10AFC000124203EA1C4324E002F0FF0482FA4CF52B
:10AFD00094EA1365A5FA8CF50AD165B951F8043BDA
:10AFE00084EA0204B4EB032F09D150F8042BEBE7F9
:10AFF0004FEA13630DE015F0FF0F05D10B684FEA20
:10B00000122223F07F4304E04FF00000FDE80445E6
:10B01000704712BA1BBA82FA4CF482EA0304A4FA0B
:10B020008CF5B5FA85F402FA04F203FA04F34FEA58
:10B030001260FDE80445A0EB1360704780EA01024E
:10B04000844612F0030F4FD111F0030F32D14DF8A7
:10B05000044D11F0040F51F8043B0BD0A3F1013261
:10B060009A4312F0803F04BF4CF8043B51F8043B74
:10B0700016D100BF51F8044BA3F101329A4312F0EC
:10B08000803FA4F101320BD14CF8043BA24312F0F3
:10B09000803F04BF51F8043B4CF8044BEAD02346F0
:10B0A0000CF8013B13F0FF0F4FEA3323F8D15DF8A2
:10B0B000044B704711F0010F06D011F8012B0CF86A
:10B0C000012B002A08BF704711F0020FBFD031F8E2
:10B0D000022B12F0FF0F16BF2CF8022B8CF8002069
:10B0E00012F47F4FB3D1704711F8012B0CF8012BEC
:10B0F000002AF9D1704700BF0000000000000000E6
:10B1000090F800F06DE9024520F007016FF0000CA7
:10B1100010F0070491F820F040F049804FF000044F
:10B120006FF00700D1E9002391F840F000F108002A
:10B1300082FA4CF2A4FA8CF283FA4CF3A2FA8CF362
:10B140004BBBD1E9022382FA4CF200F10800A4FAC9
:10B150008CF283FA4CF3A2FA8CF3E3B9D1E904231D
:10B1600082FA4CF200F10800A4FA8CF283FA4CF354
:10B17000A2FA8CF37BB9D1E9062301F1200182FA0E
:10B180004CF200F10800A4FA8CF283FA4CF3A2FA14
:10B190008CF3002BC6D0002A04BF04301A4612BA22
:10B1A000B2FA82F2FDE8024500EBD2007047D1E925
:10B1B000002304F00305C4F100004FEAC50514F0B4
:10B1C000040F91F840F00CFA05F562EA05021CBF85
:10B1D00063EA050362464FF00004A9E7000000009F
:10B1E0002DE9F04FD7B01C46894617460546039017
:10B1F00003F0D8F8036816931846FFF781FF089408
:10B2000015901DB1AB6B002B00F00781D9F86410CD
:10B21000B9F90C20C80793B202D4990540F11F81F7
:10B220009E040AD4D9F8641042F4005321F400516A
:10B23000A9F80C30C9F864109BB21D0740F1B28028
:10B24000D9F81020002A00F0AD8003F01A020A2A73
:10B2500000F0C98000239FED867B1093CDE92B334E
:10B260001793CDE919331B93189305932DAB2A93AC
:10B270009B463B78CDF81C908DED127B002B00F0A7
:10B280005982252B3C4602D11DE0252B03D014F812
:10B29000013F002BF9D1E51B8DB1DDE92B320133E4
:10B2A0002A44072BCBF80070CBF80450CDE92B32A1
:10B2B00000F3CA800BF1080B059B2B440593237800
:10B2C000002B00F0378200236678069398468DF8AD
:10B2D0008B3004F1010A4FF0FF392B250AF1010AE6
:10B2E000A6F120035A2B00F22A84DFE813F0AA0308
:10B2F000280428049C02280428042804A7022804FF
:10B300002804C602D2022804D702DC022804F6026E
:10B310006D026D026D026D026D026D026D026D02B5
:10B320006D0228042804280428042804280428047A
:10B33000FB0228043C03F303FB02FB02FB0228048C
:10B34000280428042804EE03280428049A0028046A
:10B3500028042804500328047903280428049003AF
:10B36000280428042804280428042804280428047D
:10B37000FB0228043C03C500FB02FB02FB02D103D5
:10B38000C50070002804B5032804C2039C00DE0336
:10B3900070002804500372002C02280428047C0248
:10B3A000280472004946039801F0A8FCA0B1D9F81E
:10B3B0006430D80704D4B9F80C30990540F1B7834C
:10B3C0004FF0FF330593059857B0BDE8F08F48F074
:10B3D00020089AF8006081E7B9F80C3003F01A02EF
:10B3E0000A2A7FF437AFB9F90E20002AFFF632AFF0
:10B3F000D9F86420D20705D49B0503D4D9F85800A6
:10B4000002F0E4FF23463A464946039801F026FC41
:10B410000590059857B0BDE8F08F039802F002FE42
:10B42000F4E648F0100818F0200F00F06C83089C38
:10B43000073424F00703D3E9004503F1080208921A
:10B4400028F4806300228CE12AAA0799039803F06C
:10B450004DFF002841F076830DF1B40B2CE7D9F8AD
:10B46000580002F0B1FFB9F90C2093B2D8E600BF42
:10B47000000000000000000043469F0640F12F83BB
:10B48000089C073424F00704D4E9000104F1080201
:10B49000089204460D46002871F1000205DA2D22BB
:10B4A000644265EB45058DF88B2056AAB9F1FF3F44
:10B4B000049200F0B284012254EA050123F08008CE
:10B4C00040F05981B9F1000F40F01986002A40F090
:10B4D000088513F0010356AF099302D0302307F813
:10B4E000013D00230A930F9314931193099B9DF838
:10B4F0008B204B45B8BF4B46049312B1049B0133DC
:10B50000049318F002030B9302D0049B02330493BC
:10B5100018F084032C9C0E933FD1069B04995D1A6E
:10B52000002D3ADD102D2B9A29DD59462046209614
:10B530001023039C079EBB4604E0103D102D01F133
:10B54000080118DD0132BA4F1030072ACDE92B204F
:10B55000C1E90073F1DD2AAA314620460C9303F0BD
:10B56000C5FE002840F03D84103D102DDDE92B2064
:10B570002DA90C9BE6DC209E5F4604468B460132DB
:10B58000AB4B2C44072ACDE92B24CBE9003500F343
:10B59000FF849DF88B200BF1080B72B12B9A0132BE
:10B5A00001340DF18B000121072ACDE92B24CBE9D1
:10B5B000000100F318840BF1080B0B9B6BB12B9B64
:10B5C0000133023423A90222072BCDE92B34CBE926
:10B5D000001200F315840BF1080B0E9B802B00F07A
:10B5E0003183099BA9EB0305002D37DD102D2B9A24
:10B5F000904B28DD59462046BB464FF01009374690
:10B600001C46079E04E0103D102D01F1080115DDD8
:10B6100001321030072ACDE92B20C1E90049F2DDC3
:10B620002AAA3146039803F061FE002840F0D9832E
:10B63000103D102DDDE92B202DA9E9DC3E462346E7
:10B640005F4604468B4601322C44072ACDE92B2461
:10B65000CBE9003500F3EF830BF1080B18F4807F82
:10B6600040F080822B9B099ACBF800700133144480
:10B67000072B2C94CBF804202B9300F392830BF12F
:10B68000080B18F0040F3BD0069B049A9D1A002D5E
:10B6900036DD102D2B9B21DD1026039FDDF81C804D
:10B6A00004E0103D102D0BF1080B17DD0133604A4B
:10B6B0001034072BCDE92B34CBE90026F1DD2AAA83
:10B6C0004146384603F012FE002840F06C85103DDC
:10B6D000102DDDE92B340DF1B40BE7DC0133544AB6
:10B6E0002C44072BCDE92B34CBE9002508DD2AAA11
:10B6F0000799039803F0FAFD002840F0E9822C9C9A
:10B700000499DDE905328A42ACBF9B185B180593AA
:10B71000002C40F0D58200232B930A9B1BB10A9981
:10B72000039802F021FD0DF1B40B57463B78002B36
:10B730007FF4A7AD2C9BDDF81C90002B41F0E78037
:10B7400000232B93CBE243469A0640F14E81089C9E
:10B75000073424F0070202F10801D2E900450891FC
:10B76000012200218DF88B10B9F1FF3F56A90491F9
:10B770007FF4A2AE9846012A00F05083022A00F01E
:10B780001B8356A900E03946E20842EA4572E80800
:10B7900004F0070305461446303354EA050201F865
:10B7A000013C01F1FF37EED118F0010F00F01483D6
:10B7B000302B00F01183049A02393023521A07F813
:10B7C000013C09920F468CE6A6F1300300221AF8DC
:10B7D000016B02EB820203EB4202A6F13003092B5C
:10B7E000F5D906927CE5144B179318F0200F00F062
:10B7F0001481089C073424F00703D3E9004503F1C2
:10B800000802089218F0010F09D054EA050306D087
:10B8100030238DF88D6048F002088DF88C3028F4C4
:10B82000806302229DE748F001089AF8006055E520
:10B830008C2503009C25030058250300039E3046F9
:10B8400002F0B0FD436818931846FFF759FC1B90AF
:10B850000446304602F0A6FD83681A93002C3FF49C
:10B86000B8AD9AF80060002B3FF438AD1B78002B80
:10B870003FF434AD48F4806830E5089B9AF80060E6
:10B880001A680692002A03F10403C0F2978608930F
:10B8900024E58DF88B509AF800601FE59AF8006057
:10B8A00048F004081AE59AF800602A2E0AF101020D
:10B8B00001F0B081A6F13003092B92464FF0000948
:10B8C0003FF60EAD1AF8016B09EB890903EB490944
:10B8D000A6F13003092BF5D902E548F080089AF863
:10B8E0000060FBE4089C073424F0070494ED007B1F
:10B8F00052EC171B22F000431D938DED1C7A083487
:10B90000DDE91C014FF0FF32BA4B08948DED127B3C
:10B9100004F076FF002840F06F844FF0FF32B54B03
:10B92000DDE91C0104F04EFF002840F06584002290
:10B930000023DDE9120104F03BFF002840F05B85A5
:10B940009DF88B20AC4FAD4B0020032104910A9051
:10B9500028F08008472ED8BF1F46099181460F90D6
:10B9600014901190C9E50898002301688DF88B3078
:10B970001A468DF8F4100123011D04930A92914692
:10B980000F9214921192CDE908133DAFB9E5089BCF
:10B990001F6800258DF88B501C1D002F00F0398684
:10B9A000B9F1FF3F00F011874A462946384603F0B7
:10B9B0003FF80A90002800F0E7850A9BDB1B0993FB
:10B9C000A94623EAE37308940493CDF82890CDF8B0
:10B9D0003C90CDF85090CDF844909DF88B208CE5AC
:10B9E00048F010039A063FF5B2AE089ADF0602F15E
:10B9F000040100F17E835D06089A00F1E4849C0551
:10BA000040F177831478089100250122A9E67C4B48
:10BA1000179318F0200F7FF4ECAE089A18F0100F6F
:10BA200002F1040340F0548318F0400F089A40F0EC
:10BA3000D08418F4007F00F04B831478089300251D
:10BA4000E0E69DF88B309AF80060002B7FF446AC5E
:10BA500020238DF88B3041E49AF800606C2E03BFF0
:10BA60009AF8016048F020080AF1010A48F010082D
:10BA700034E4089A18F0200F52F8043B089200F0C2
:10BA8000A183059A1046D117C3E9000157464DE638
:10BA90009AF80060682E03BF9AF8016048F40078B5
:10BAA0000AF1010A48F0400818E40899554B0C685F
:10BAB000179347F630020431ADF88C2048F00203AA
:10BAC00008910025022278264BE648F008089AF8EB
:10BAD000006003E448F010039F063FF5D1AC0899DD
